:1000000012C019C018C017C016C015C014C013C044
:1000100012C011C010C00FC00EC00DC00CC00BC06C
:100020000AC009C008C011241FBECFE5D4E0DEBF5E
:10003000CDBF02D025C0E4CF82E287BB90E282E050
:1000400098BB2FEF34E34CE0215030404040E1F7C3
:1000500000C0000018BA2FEF34E34CE021503040CC
:100060004040E1F700C0000088BB2FE73AE146E0DE
:10007000215030404040E1F700C0000018BAE0CF06
:04008000F894FFCF22
:00000001FF
